:020000040000FA
:0400000059EF00F0C4
:0600080054823CEF2AF0D7
:100018005480D8CF05F0E8CF06F0E0CF07F0FACF4C
:1000280008F0FBCF09F0D9CF0AF0DACF0BF00E01B8
:10003800C6B5CEA503D041EC2CF027D0C6B1CEA1D1
:1000480003D054EC2DF021D0C5B9CDA909D001D8E1
:100058001CD005000001FA6EF351FD6EF4510BD06F
:10006800C5BBCDAB0DD001D810D005000101FA6E8B
:10007800FE51FD6EFF51FE6EF850FF6EFA501200F1
:10008800C2B1CAA102D0CAEC2BF00BC0DAFF0AC079
:10009800D9FF09C0FBFF08C0FAFF07C0E0FF06C090
:1000A800E8FF05C0D8FF54901000D5EF28F0A1C094
:1000B800B8F1A2C0B9F1A3C0BAF1A4C0BBF1B8C1EC
:1000C80060F1B9C161F1BAC162F1BBC163F1A5C008
:1000D800B8F1A6C0B9F1A7C0BAF1A8C0BBF1B8C1C0
:1000E8007CF1B9C17DF1BAC17EF1BBC17FF1FF0ED0
:1000F80001016015A86FFF0E6115A96FFF0E62154B
:10010800AA6F7F0E6315AB6FFF0E7C15906FFF0E05
:100118007D15916FFF0E7E15926F7F0E7F15936F81
:100128009051911192119311D8A40AD0000E000198
:10013800A16F000EA26F800EA36F3F0EA46F120076
:10014800800E621910E13F0E631960116111D8A485
:100158000AD0000E0001A16F000EA26F800EA36FDF
:100168003F0EA46F1200ABBF09D0A805000EA95915
:10017800800EAA597F0EAB59D8B00BD093BF24D0AC
:100188009005000E9159800E92597F0E9359D8A070
:100198001BD0A1C00CF0A2C00DF0A3C00EF0A4C0EB
:1001A8000FF0A5C010F0A6C011F0A7C012F0A8C0AB
:1001B80013F072EC1CF00CC0A1F00DC0A2F00EC040
:1001C800A3F00FC0A4F01200000E506F000E516F84
:1001D800000E526F000E536F63AFB1D093BF0ED0B5
:1001E800800E925D4B0E9359D8A008D0020E506F26
:1001F800000E516F000E526F000EA0D093BF9FD01B
:10020800800E925D3F0E9359D8A099D0170E000129
:10021800A96F90C1AAF091C1ABF092C1ACF093C1A3
:10022800ADF0A96701D007D0AD35AD33AC33AB33F2
:10023800AA33A92FF6D7810E0001AA250101A06FC4
:10024800FF0E0001AB210101A16FFF0E0001AC21DF
:100258000101A26FFF0E0001AD210101A36FA051A2
:1002680017080001A96F90C1AAF091C1ABF092C123
:10027800ACF093C1ADF0A96701D007D0AD35AD336F
:10028800AC33AB33AA33A92FF6D7AAC0ACF1ABC0B5
:10029800ADF1ACC0AEF1ADC0AFF10101A05117088E
:1002A8000001A96FACC1AAF0ADC1ABF0AEC1ACF012
:1002B800AFC1ADF0A92B05D0D890AA37AB37AC3772
:1002C800AD37A92FF9D7010190510001AA1937E1DB
:1002D800010191510001AB1932E101019251000174
:1002E800AC192DE1010193510001AD19D8A427D013
:1002F800010E0101AC150001A96F000E0101AD1539
:100308000001AA6F000E0101AE150001AB6F000ECF
:100318000101AF150001AC6FA95102080101506F2E
:10032800000E0001AA550101516F000E0001AB55E6
:100338000101526F000E0001AC550101536F800E90
:100348000101921958E17F0E931990119111D8A4C7
:1003580052D0800EAA1910E13F0EAB19A811A911AD
:10036800D8A40AD0000E0001A16F000EA26F800E63
:10037800A36F3F0EA46F1200ABBF1ED0A805000EDE
:10038800A959800EAA593F0EAB59D8A015D07FAFF6
:100398000AD0000E0001A16F000EA26F000EA36F1D
:1003A800000EA46F1200A5C0A1F0A6C0A2F0A7C0BD
:1003B800A3F0A8C0A4F012007FAF13D0A5C00CF022
:1003C800A6C00DF0A7C00EF0A8C00FF02AEC2CF0C4
:1003D8000CC0A1F00DC0A2F00EC0A3F00FC0A4F095
:1003E8001200000E0001A16F000EA26F000EA36F95
:1003F800000EA46F1200800E92192DE13F0E931982
:1004080090119111D8A427D07FAF1CD0000E000105
:10041800686F000E696F800E6A6F3F0E6B6FA1C028
:100428006CF0A2C06DF0A3C06EF0A4C06FF0F8EC41
:100438001DF068C0A1F069C0A2F06AC0A3F06BC04B
:10044800A4F01200A1C0A1F0A2C0A2F0A3C0A3F022
:10045800A4C0A4F01200400E7F197C117D117E11FA
:10046800D8A41BD0A1C01CF0A2C01DF0A3C01EF0D0
:10047800A4C01FF0A1C020F0A2C021F0A3C022F0A8
:10048800A4C023F0C9EC1AF01CC0A1F01DC0A2F052
:100498001EC0A3F01FC0A4F012003F0E7F197C11EC
:1004A8007D117E11D8B463BF13D0A1C070F0A2C073
:1004B80071F0A3C072F0A4C073F0C0EC16F070C065
:1004C800A1F071C0A2F072C0A3F073C0A4F0120032
:1004D800A1C00CF0A2C00DF0A3C00EF0A4C00FF094
:1004E8007DEC2BF00CC070F10DC071F10EC072F1F3
:1004F8000FC073F1800E0101AA1906E17F0EAB1936
:10050800A811A911D8B40FD0A851A911AA11AB11DB
:10051800D8B409D0800EAA1905E13F0EAB19A8116D
:10052800A911D8A4B6D070C1B4F171C1B5F172C126
:10053800B6F173C1B7F17FAF1BD0000E0001686F31
:10054800000E696F800E6A6F3F0E6B6FB4C16CF05E
:10055800B5C16DF0B6C16EF0B7C16FF0F8EC1DF023
:1005680068C0B4F169C0B5F16AC0B6F16BC0B7F143
:10057800010163AF85D0000EA8250001A96F000E08
:100588000101A9210001AA6F800E0101AA21000121
:10059800AB6FC00E0101AB210001AC6F01015051DE
:1005A8000001A911AD6F010151510001AA11AE6FEF
:1005B800010152510001AB11AF6F0101535100010C
:1005C800AC11B06FAD51AE11AF11B011D8A43FD07E
:1005D800B4C164F0B5C165F0B6C166F0B7C167F0E3
:1005E800B4C160F0B5C161F0B6C162F0B7C163F0E3
:1005F8008DEC2AF060C068F061C069F062C06AF0F2
:1006080063C06BF0B4C164F0B5C165F0B6C166F003
:10061800B7C167F0B4C160F0B5C161F0B6C162F0AE
:10062800B7C163F08DEC2AF060C06CF061C06DF06A
:1006380062C06EF063C06FF0F8EC1DF068C0B4F1F2
:1006480069C0B5F16AC0B6F16BC0B7F119D0010144
:100658005005511152115311D8A412D0B4C10CF045
:10066800B5C10DF0B6C10EF0B7C10FF02AEC2CF0F1
:100678000CC0B4F10DC0B5F10EC0B6F10FC0B7F1A2
:10068800B4C1A1F0B5C1A2F0B6C1A3F0B7C1A4F03E
:100698001200000E846F000E856F800E866F3F0E6D
:1006A800876F63AF53D05051511152115311D8A4D1
:1006B8003FD0A1C064F0A2C065F0A3C066F0A4C09A
:1006C80067F0A1C060F0A2C061F0A3C062F0A4C04E
:1006D80063F08DEC2AF060C068F061C069F062C018
:1006E8006AF063C06BF0A1C064F0A2C065F0A3C05B
:1006F80066F0A4C067F0A1C060F0A2C061F0A3C01A
:1007080062F0A4C063F08DEC2AF060C06CF061C0A8
:100718006DF062C06EF063C06FF0F8EC1DF068C059
:10072800A1F069C0A2F06AC0A3F06BC0A4F01200E7
:100738005005511152115311D8A408D0000E846FDE
:10074800000E856F800E866FBF0E876F93BF6DD2C8
:100758009005000E9159000E92594D0E9359D8A04C
:1007680064D2ABBF0AD0F80EA85DFF0EA9597F0E60
:10077800AA593F0EAB59D8B06CD07FBF35D0600EA8
:10078800206E420E216EA20E226E0D0E236E84C1C3
:100798001CF085C11DF086C11EF087C11FF0C9EC91
:1007A8001AF01CC0A4F11DC0A5F11EC0A6F11FC0FF
:1007B800A7F1A4C11CF0A5C11DF0A6C11EF0A7C1D8
:1007C8001FF0600E206E420E216EA20E226E0D0EDC
:1007D800236EC9EC1AF01CC0A1F01DC0A2F01EC007
:1007E800A3F01FC0A4F01200CA0E206EF20E216EF4
:1007F800490E226E710E236E84C11CF085C11DF056
:1008080086C11EF087C11FF0C9EC1AF01CC0A4F104
:100818001DC0A5F11EC0A6F11FC0A7F1A4C11CF000
:10082800A5C11DF0A6C11EF0A7C11FF0CA0E206EFB
:10083800F20E216E490E226E710E236EC9EC1AF06B
:100848001CC0A1F01DC0A2F01EC0A3F01FC0A4F0E0
:100858001200ABBF7DD0080EA85D000EA959800E0E
:10086800AA593F0EAB59D8A073D07FBF07D07F518C
:100878007E117D1138E17C05D8B035D0600E206E30
:10088800420E216EA20E226E0D0E236E84C11CF044
:1008980085C11DF086C11EF087C11FF0C9EC1AF092
:1008A8001CC0A4F11DC0A5F11EC0A6F11FC0A7F170
:1008B800A4C11CF0A5C11DF0A6C11EF0A7C11FF060
:1008C800600E206E420E216EA20E226E0D0E236E59
:1008D800C9EC1AF01CC0A1F01DC0A2F01EC0A3F004
:1008E8001FC0A4F01200CA0E206EF20E216E490E2F
:1008F800226E710E236E84C11CF085C11DF086C165
:100908001EF087C11FF0C9EC1AF01CC0A4F11DC06D
:10091800A5F11EC0A6F11FC0A7F1A4C11CF0A5C176
:100928001DF0A6C11EF0A7C11FF0CA0E206EF20E60
:10093800216E490E226E710E236EC9EC1AF01CC08E
:10094800A1F01DC0A2F01EC0A3F01FC0A4F01200A9
:1009580070C10CF071C10DF072C10EF073C10FF0CF
:10096800000E106E000E116E800E126EBF0E136E0A
:1009780072EC1CF00CC0B0F10DC0B1F10EC0B2F1B8
:100988000FC0B3F1000E206E000E216E800E226E95
:100998003E0E236EB0C11CF0B1C11DF0B2C11EF0F5
:1009A800B3C11FF0C9EC1AF01CC064F01DC065F09B
:1009B8001EC066F01FC067F0AB0E0001606FAA0E84
:1009C800616FAA0E626F3E0E636F8DEC2AF060C0F5
:1009D800A4F161C0A5F162C0A6F163C0A7F1B0C1DE
:1009E80020F0B1C121F0B2C122F0B3C123F0B0C1EF
:1009F8001CF0B1C11DF0B2C11EF0B3C11FF0C9ECAB
:100A08001AF01CC058F11DC059F11EC05AF11FC080
:100A18005BF1B0C120F0B1C121F0B2C122F0B3C185
:100A280023F0A4C11CF0A5C11DF0A6C11EF0A7C1EA
:100A38001FF0C9EC1AF01CC064F01DC065F01EC0A0
:100A480066F01FC067F0000E0001606F000E616F56
:100A5800000E626F3F0E636F8DEC2AF060C048F1A4
:100A680061C049F162C04AF163C04BF158C11CF042
:100A780059C11DF05AC11EF05BC11FF048C120F0DA
:100A880049C121F04AC122F04BC123F0C9EC1AF048
:100A98001CC044F11DC045F11EC046F11FC047F1FE
:100AA800B0C11CF0B1C11DF0B2C11EF0B3C11FF03E
:100AB800000E206EAA0E216EB80E226E3F0E236E17
:100AC800C9EC1AF01CC074F11DC075F11EC076F196
:100AD8001FC077F1700E206EA50E216EEC0E226EEF
:100AE800360E236EB0C11CF0B1C11DF0B2C11EF0AC
:100AF800B3C11FF0C9EC1AF01CC060F01DC061F052
:100B08001EC062F01FC063F03B0E206EAA0E216E5D
:100B1800B80E226E3F0E236E44C11CF045C11DF075
:100B280046C11EF047C11FF0C9EC1AF01CC064F0A2
:100B38001DC065F01EC066F01FC067F08DEC2AF07E
:100B480060C078F161C079F162C07AF163C07BF16D
:100B580074C10CF075C10DF076C10EF077C10FF0BD
:100B680078C110F079C111F07AC112F07BC113F08D
:100B780072EC1CF00CC080F10DC081F10EC082F146
:100B88000FC083F180C1B8F181C1B9F182C1BAF156
:100B980083C1BBF1B8C194F1B9C195F1BAC196F15D
:100BA800BBC197F1000E01019415B86FF00E9515B1
:100BB800B96FFF0E9615BA6FFF0E9715BB6FB8C1C8
:100BC80080F1B9C181F1BAC182F1BBC183F174C1AD
:100BD80064F075C165F076C166F077C167F080C1D1
:100BE80060F081C161F082C162F083C163F08DEC75
:100BF8002AF060C098F161C099F162C09AF163C0AF
:100C08009BF178C160F079C161F07AC162F07BC173
:100C180063F098C164F099C165F09AC166F09BC110
:100C280067F08DEC2AF060EF0DF0000E886F000E73
:100C3800896F000E8A6F000E8B6FABBF06D0AB5169
:100C480037E1800EAA5DD8B033D070C11CF071C1F5
:100C58001DF072C11EF073C11FF0000E206E000E51
:100C6800216E800E226E4B0E236EC9EC1AF01CC04A
:100C780070F11DC071F11EC072F11FC073F1E80E52
:100C880001018827FF0E8923FF0E8A23FF0E8B237D
:100C980070C1B8F171C1B9F172C1BAF173C1BBF1D8
:100CA800B8C1A8F1B9C1A9F1BAC1AAF1BBC1ABF1E8
:100CB800170E0001A96FA8C1AAF0A9C1ABF0AAC17B
:100CC800ACF0ABC1ADF0A96701D007D0AD35AD33FD
:100CD800AC33AB33AA33A92FF6D7810E0001AA256E
:100CE800AE6FFF0EAB21AF6FFF0EAC21B06FFF0EE2
:100CF800AD21B16FAE51010188270001AF5101014B
:100D080089230001B05101018A230001B151010179
:100D18008B23FF0EA815AC6FFF0EA915AD6F7F0EC4
:100D2800AA15AE6F000EAB15AF6F000EAC11A86F11
:100D3800000EAD11A96F800EAE11AA6F3F0EAF1154
:100D4800AB6FAFBF0AD0AF510AE1720EAC5DC40EF3
:100D5800AD591C0EAE59D8B002D0000E0DD0AFBFA1
:100D68000AD0AF5111E1D70EAC5DB30EAD595D0E8F
:100D7800AE59D8B009D0010EA06F000EA16F000EB9
:100D8800A26F000EA36F16D0000EA06F000EA16F09
:100D9800000EA26F000EA36F010E8827000E892394
:100DA8008A238B23000EA827000EA923800EAA23CE
:100DB800FF0EAB23A8C1B8F1A9C1B9F1AAC1BAF114
:100DC800ABC1BBF1B8C170F1B9C171F1BAC172F16F
:100DD800BBC173F170C160F071C161F072C162F0A2
:100DE80073C163F0A0C1A9F0A1C1AAF00001D89015
:100DF800A937AA37D890A937AA37ED0EA925F66ED4
:100E08007D0EAA21F76E0900F5CF64F00900F5CF31
:100E180065F00900F5CF66F00A00F5CF67F08DECB4
:100E28002AF060C074F161C075F162C076F163C0E8
:100E380077F1000E0001686F000E696F800E6A6F0F
:100E48003F0E6B6F70C110F071C111F072C112F0DA
:100E580073C113F0A0C1A9F0A1C1AAF0D890A93715
:100E6800AA37D890A937AA37ED0EA925F66E7D0EB8
:100E7800AA21F76E0900F5CF0CF00900F5CF0DF0A7
:100E88000900F5CF0EF00A00F5CF0FF072EC1CF058
:100E98000CC06CF00DC06DF00EC06EF00FC06FF09E
:100EA800F8EC1DF068C078F169C079F16AC07AF190
:100EB8006BC07BF174C11CF075C11DF076C11EF0CA
:100EC80077C11FF078C120F079C121F07AC122F0F2
:100ED8007BC123F0C9EC1AF01CC054F11DC055F1B8
:100EE8001EC056F11FC057F154C16CF155C16DF1C8
:100EF80056C16EF157C16FF16CC1B8F16DC1B9F14E
:100F08006EC1BAF16FC1BBF1B8C194F1B9C195F125
:100F1800BAC196F1BBC197F1000E01019415B86FE3
:100F2800F00E9515B96FFF0E9615BA6FFF0E97154F
:100F3800BB6FB8C16CF1B9C16DF1BAC16EF1BBC17B
:100F48006FF1A8C1A9F0A9C1AAF0AAC1ABF0ABC1C1
:100F5800ACF00001AC35AC33AB33AA33A933000E87
:100F6800A915AD6FF00EAA15AE6FFF0EAB15AF6FDA
:100F7800FF0EAC15B06F000EAD110101946F000E9D
:100F88000001AE110101956F000E0001AF110101C2
:100F9800966F200E0001B0110101976FA0C1A9F052
:100FA800A1C1AAF0A2C1ABF0A3C1ACF0150ED890B4
:100FB8000001A937AA37AB37AC37E82EF8D70101BB
:100FC80094510001A925AD6F010195510001AA2195
:100FD800AE6F010196510001AB21AF6F010197512E
:100FE8000001AC21B06F000EAD250101B86F000EF5
:100FF8000001AE210101B96F400E0001AF210101CE
:10100800BA6F000E0001B0210101BB6FB8C168F1D1
:10101800B9C169F1BAC16AF1BBC16BF1A0C1A9F04C
:10102800A1C1AAF00001D890A937AA37D890A9374A
:10103800AA37ED0EA925F66E7D0EAA21F76E0900D6
:10104800F5CF64F00900F5CF65F00900F5CF66F03B
:101058000A00F5CF67F068C160F069C161F06AC144
:1010680062F06BC163F08DEC2AF060C098F161C04A
:1010780099F162C09AF163C09BF170C160F071C1CF
:1010880061F072C162F073C163F098C164F099C1F4
:1010980065F09AC166F09BC167F08DEC2AF060C0DC
:1010A80034F161C035F162C036F163C037F168C10F
:1010B80020F069C121F06AC122F06BC123F06CC134
:1010C8001CF06DC11DF06EC11EF06FC11FF0C9ECA0
:1010D8001AF01CC064F01DC065F01EC066F01FC089
:1010E80067F074C160F075C161F076C162F077C1D4
:1010F80063F08DEC2AF060C098F161C099F162C08C
:101108009AF163C09BF134C120F035C121F036C19A
:1011180022F037C123F06CC11CF06DC11DF06EC107
:101128001EF06FC11FF0C9EC1AF01CC064F01DC09E
:1011380065F01EC066F01FC067F098C160F099C1E5
:1011480061F09AC162F09BC163F08DEC2AF060C037
:1011580058F161C059F162C05AF163C05BF158C1DE
:101168001CF059C11DF05AC11EF05BC11FF078C1B7
:1011780020F079C121F07AC122F07BC123F0C9ECBB
:101188001AF01CC030F11DC031F11EC032F11FC071
:1011980033F154C11CF055C11DF056C11EF057C1A2
:1011A8001FF054C120F055C121F056C122F057C19B
:1011B80023F0C9EC1AF01CC08CF11DC08DF11EC0C3
:1011C8008EF11FC08FF1550E106E320E116E6C0E1F
:1011D800126E3E0E136E420E206EF10E216E530EED
:1011E800226E3E0E236E8CC11CF08DC11DF08EC187
:1011F8001EF08FC11FF0C9EC1AF01CC00CF01DC006
:101208000DF01EC00EF01FC00FF072EC1CF00CC0E9
:10121800A4F10DC0A5F10EC0A6F10FC0A7F1050EEF
:10122800106EA30E116E8B0E126E3E0E136E8CC1D5
:1012380020F08DC121F08EC122F08FC123F0A4C10E
:101248001CF0A5C11DF0A6C11EF0A7C11FF0C9EC76
:101258001AF01CC00CF01DC00DF01EC00EF01FC00F
:101268000FF072EC1CF00CC058F10DC059F10EC013
:101278005AF10FC05BF1AB0E106EAA0E116EAA0EDA
:10128800126E3E0E136E8CC120F08DC121F08EC1FE
:1012980022F08FC123F058C11CF059C11DF05AC16A
:1012A8001EF05BC11FF0C9EC1AF01CC00CF01DC089
:1012B8000DF01EC00EF01FC00FF072EC1CF00CC039
:1012C80048F10DC049F10EC04AF10FC04BF1B70EFD
:1012D800106E6D0E116EDB0E126E3E0E136E8CC10B
:1012E80020F08DC121F08EC122F08FC123F048C1BA
:1012F8001CF049C11DF04AC11EF04BC11FF0C9ECDA
:101308001AF01CC00CF01DC00DF01EC00EF01FC05E
:101318000FF072EC1CF00CC038F10DC039F10EC0A2
:101328003AF10FC03BF19A0E106E990E116E190E1C
:10133800126E3F0E136E8CC120F08DC121F08EC14C
:1013480022F08FC123F038C11CF039C11DF03AC119
:101358001EF03BC11FF0C9EC1AF01CC00CF01DC0F8
:101368000DF01EC00EF01FC00FF072EC1CF00CC088
:1013780000F10DC001F10EC002F10FC003F18CC1E4
:1013880020F08DC121F08EC122F08FC123F08CC1D5
:101398001CF08DC11DF08EC11EF08FC11FF0C9EC6D
:1013A8001AF01CC004F11DC005F11EC006F11FC0D3
:1013B80007F100C11CF001C11DF002C11EF003C1FC
:1013C8001FF004C120F005C121F006C122F007C1B9
:1013D80023F0C9EC1AF01CC04CF11DC04DF11EC021
:1013E8004EF11FC04FF130C120F031C121F032C1A0
:1013F80022F033C123F054C110F055C111F056C189
:1014080012F057C113F06CC10CF06DC10DF06EC134
:101418000EF06FC10FF072EC1CF00CC01CF00DC088
:101428001DF00EC01EF00FC01FF0C9EC1AF01CC052
:101438005CF11DC05DF11EC05EF11FC05FF14CC1C3
:101448000CF04DC10DF04EC10EF04FC10FF05CC154
:1014580010F05DC111F05EC112F05FC113F072ECC3
:101468001CF00CC04CF10DC04DF10EC04EF10FC078
:101478004FF16CC11CF06DC11DF06EC11EF06FC143
:101488001FF06CC120F06DC121F06EC122F06FC158
:1014980023F0C9EC1AF01CC08CF11DC08DF11EC0E0
:1014A8008EF11FC08FF1000E106E000E116E400EEF
:1014B800126E400E136E8CC10CF08DC10DF08EC1F2
:1014C8000EF08FC10FF072EC1CF00CC05CF10DC077
:1014D8005DF10EC05EF10FC05FF15CC10CF05DC143
:1014E8000DF05EC10EF05FC10FF04CC110F04DC1A0
:1014F80011F04EC112F04FC113F072EC1CF00CC089
:1015080068F10DC069F10EC06AF10FC06BF168C1D6
:10151800B8F169C1B9F16AC1BAF16BC1BBF1B8C11F
:1015280094F1B9C195F1BAC196F1BBC197F1000E1A
:1015380001019415B86FF00E9515B96FFF0E961549
:10154800BA6FFF0E9715BB6FB8C168F1B9C169F1E1
:10155800BAC16AF1BBC16BF1000E106E000E116EBC
:10156800400E126EC00E136E68C10CF069C10DF00A
:101578006AC10EF06BC10FF072EC1CF00CC03CF1AC
:101588000DC03DF10EC03EF10FC03FF18CC164F0BB
:101598008DC165F08EC166F08FC167F03CC160F007
:1015A8003DC161F03EC162F03FC163F08DEC2AF0AD
:1015B80060C040F161C041F162C042F163C043F1D3
:1015C8004CC160F04DC161F04EC162F04FC163F093
:1015D80040C164F041C165F042C166F043C167F0A3
:1015E8008DEC2AF060C034F161C035F162C036F18B
:1015F80063C037F16CC11CF06DC11DF06EC11EF0E7
:101608006FC11FF068C120F069C121F06AC122F0E2
:101618006BC123F0C9EC1AF01CC074F11DC075F140
:101628001EC076F11FC077F168C120F069C121F0B2
:101638006AC122F06BC123F030C11CF031C11DF02A
:1016480032C11EF033C11FF0C9EC1AF01CC00CF0F7
:101658001DC00DF01EC00EF01FC00FF054C120F0C9
:1016680055C121F056C122F057C123F034C11CF0F6
:1016780035C11DF036C11EF037C11FF0C9EC1AF094
:101688001CC010F01DC011F01EC012F01FC013F0D6
:1016980072EC1CF00CC078F10DC079F10EC07AF133
:1016A8000FC07BF174C10CF075C10DF076C10EF05E
:1016B80077C10FF078C110F079C111F07AC112F03A
:1016C8007BC113F072EC1CF00CC09CF10DC09DF1B5
:1016D8000EC09EF10FC09FF19CC1B8F19DC1B9F138
:1016E8009EC1BAF19FC1BBF1B8C194F1B9C195F1DE
:1016F800BAC196F1BBC197F1000E01019415B86FFC
:10170800F00E9515B96FFF0E9615BA6FFF0E971567
:10171800BB6FB8C19CF1B9C19DF1BAC19EF1BBC103
:101728009FF174C164F075C165F076C166F077C148
:1017380067F09CC160F09DC161F09EC162F09FC1DD
:1017480063F08DEC2AF060C098F161C099F162C035
:101758009AF163C09BF178C160F079C161F07AC1F8
:1017680062F07BC163F098C164F099C165F09AC1D9
:1017780066F09BC167F08DEC2AF060C064F161C02F
:1017880065F162C066F163C067F19CC11CF09DC140
:101798001DF09EC11EF09FC11FF0000E206E400E6E
:1017A800216E760E226E3F0E236EC9EC1AF01CC015
:1017B80020F11DC021F11EC022F11FC023F14F0EE0
:1017C800206E380E216E760E226E3F0E236E64C197
:1017D8001CF065C11DF066C11EF067C11FF0C9ECA1
:1017E8001AF01CC010F01DC011F01EC012F01FC06E
:1017F80013F0C60E206E230E216EF60E226EB80E62
:10180800236E9CC11CF09DC11DF09EC11EF09FC19E
:101818001FF0C9EC1AF01CC00CF01DC00DF01EC062
:101828000EF01FC00FF072EC1CF00CC05CF10DC084
:101838005DF10EC05EF10FC05FF15CC10CF05DC1DF
:101848000DF05EC10EF05FC10FF0A0C1A9F0A1C1FB
:10185800AAF00001D890A937AA37D890A937AA3793
:10186800810EA925F66E7D0EAA21F76E0900F5CF27
:1018780010F00900F5CF11F00900F5CF12F00A00B9
:10188800F5CF13F072EC1CF00CC024F10DC025F15B
:101898000EC026F10FC027F188C10CF089C10DF0E8
:1018A8008AC10EF08BC10FF0010E38EC24F00CC089
:1018B800B0F10DC0B1F10EC0B2F10FC0B3F124C147
:1018C80010F025C111F026C112F027C113F020C174
:1018D8000CF021C10DF022C10EF023C10FF072EC03
:1018E8001CF00CC05CF10DC05DF10EC05EF10FC0C4
:1018F8005FF1A0C1A9F0A1C1AAF00001D890A93751
:10190800AA37D890A937AA37890EA925F66E7D0E71
:10191800AA21F76E0900F5CF10F00900F5CF11F0F4
:101928000900F5CF12F00A00F5CF13F05CC10CF0F6
:101938005DC10DF05EC10EF05FC10FF072EC1CF0DE
:101948000CC008F10DC009F10EC00AF10FC00BF16F
:1019580008C10CF009C10DF00AC10EF00BC10FF05F
:10196800B0C110F0B1C111F0B2C112F0B3C113F09F
:1019780072EC1CF00CC080F10DC081F10EC082F138
:101988000FC083F180C1B8F181C1B9F182C1BAF148
:1019980083C1BBF1B8C194F1B9C195F1BAC196F14F
:1019A800BBC197F1000E01019415B86FF00E9515A3
:1019B800B96FFF0E9615BA6FFF0E9715BB6FB8C1BA
:1019C80080F1B9C181F1BAC182F1BBC183F1B0C163
:1019D80064F0B1C165F0B2C166F0B3C167F080C10F
:1019E80060F081C161F082C162F083C163F08DEC67
:1019F8002AF060C098F161C099F162C09AF163C0A1
:101A08009BF1A0C1A9F0A1C1AAF00001D890A93703
:101A1800AA37D890A937AA37890EA925F66E7D0E60
:101A2800AA21F76E0900F5CF64F00900F5CF65F03B
:101A38000900F5CF66F00A00F5CF67F098C160F0AD
:101A480099C161F09AC162F09BC163F08DEC2AF0F4
:101A580060C040F161C041F162C042F163C043F12E
:101A680020C164F021C165F022C166F023C167F08E
:101A780040C160F041C161F042C162F043C163F00E
:101A88008DEC2AF060C00CF161C00DF162C00EF15E
:101A980063C00FF124C160F025C161F026C162F076
:101AA80027C163F00CC164F00DC165F00EC166F08A
:101AB8000FC167F08DEC2AF060C01CF161C01DF108
:101AC80062C01EF163C01FF1A5C0B8F1A6C0B9F18C
:101AD800A7C0BAF1A8C0BBF1B8C194F1B9C195F1DA
:101AE800BAC196F1BBC197F1000E01019415B86F08
:101AF800F00E9515B96FFF0E9615BA6FFF0E971574
:101B0800BB6FB8C128F1B9C129F1BAC12AF1BBC16B
:101B18002BF180C120F081C121F082C122F083C164
:101B280023F028C164F029C165F02AC166F02BC1F1
:101B380067F0A5C060F0A6C061F0A7C062F0A8C0B9
:101B480063F08DEC2AF060C01CF061C01DF062C02B
:101B58001EF063C01FF0C9EC1AF01CC010F11DC0C4
:101B680011F11EC012F11FC013F110C10CF011C108
:101B78000DF012C10EF013C10FF01CC120F01DC1F1
:101B880021F01EC122F01FC123F0A5C01CF0A6C081
:101B98001DF0A7C01EF0A8C01FF0C9EC1AF01CC0A9
:101BA80010F01DC011F01EC012F01FC013F072EC2F
:101BB8001CF00CC064F10DC065F10EC066F10FC0D9
:101BC80067F128C11CF029C11DF02AC11EF02BC1E4
:101BD8001FF080C120F081C121F082C122F083C1B1
:101BE80023F0C9EC1AF01CC09CF11DC09DF11EC069
:101BF8009EF11FC09FF164C10CF065C10DF066C174
:101C08000EF067C10FF09CC110F09DC111F09EC18C
:101C180012F09FC113F072EC1CF00CC0B4F10DC0AF
:101C2800B5F10EC0B6F10FC0B7F1B4C1B8F1B5C186
:101C3800B9F1B6C1BAF1B7C1BBF1B8C1ACF1B9C11C
:101C4800ADF1BAC1AEF1BBC1AFF10101AFBF3ED03A
:101C5800AC05000EAD59000EAE59430EAF59D8A0D1
:101C680035D0CA0E206EF20E216E490E226E710E0C
:101C7800236E84C11CF085C11DF086C11EF087C18A
:101C88001FF0C9EC1AF01CC0A4F11DC0A5F11EC0BC
:101C9800A6F11FC0A7F1A4C11CF0A5C11DF0A6C1E3
:101CA8001EF0A7C11FF0CA0E206EF20E216E490E5B
:101CB800226E710E236EC9EC1AF01CC0A1F01DC073
:101CC800A2F01EC0A3F01FC0A4F01200430EAF196B
:101CD800AC11AD11AE11D8A46ED09CC164F09DC1F9
:101CE80065F09EC166F09FC167F0B4C160F0B5C1F0
:101CF80061F0B6C162F0B7C163F08DEC2AF060C044
:101D080068F061C069F062C06AF063C06BF03C0EB5
:101D1800106EAA0E116E380E126E330E136E64C159
:101D28000CF065C10DF066C10EF067C10FF072ECE2
:101D38001CF00CC06CF00DC06DF00EC06EF00FC042
:101D48006FF007EC26F00001D8B0EED0CA0E206E76
:101D5800F20E216E490E226E710E236E84C11CF0A4
:101D680085C11DF086C11EF087C11FF0C9EC1AF0AD
:101D78001CC0A4F11DC0A5F11EC0A6F11FC0A7F18B
:101D8800A4C11CF0A5C11DF0A6C11EF0A7C11FF07B
:101D9800CA0E206EF20E216E490E226E710E236E4F
:101DA800C9EC1AF01CC0A1F01DC0A2F01EC0A3F01F
:101DB8001FC0A4F01200FF0EAC150001A96FFF0EA2
:101DC8000101AD150001AA6FFF0E0101AE1500015A
:101DD800AB6F7F0E0101AF150001AC6FACBF3ED0F9
:101DE800A905000EAA59160EAB59430EAC59D8A036
:101DF80035D0600E206E420E216EA20E226E0D0EA0
:101E0800236E84C11CF085C11DF086C11EF087C1F8
:101E18001FF0C9EC1AF01CC0A4F11DC0A5F11EC02A
:101E2800A6F11FC0A7F1A4C11CF0A5C11DF0A6C151
:101E38001EF0A7C11FF0600E206E420E216EA20E8A
:101E4800226E0D0E236EC9EC1AF01CC0A1F01DC045
:101E5800A2F01EC0A3F01FC0A4F01200160E0101CC
:101E6800AE1962E1C30EAF19AC11AD11D8A45CD0A4
:101E78009CC164F09DC165F09EC166F09FC167F08A
:101E8800B4C160F0B5C161F0B6C162F0B7C163F02A
:101E98008DEC2AF060C068F061C069F062C06AF039
:101EA80063C06BF064C16CF065C16DF066C16EF023
:101EB80067C16FF007EC26F00001D8A035D0600E9E
:101EC800206E420E216EA20E226E0D0E236E84C16C
:101ED8001CF085C11DF086C11EF087C11FF0C9EC3A
:101EE8001AF01CC0A4F11DC0A5F11EC0A6F11FC0A8
:101EF800A7F1A4C11CF0A5C11DF0A6C11EF0A7C181
:101F08001FF0600E206E420E216EA20E226E0D0E84
:101F1800236EC9EC1AF01CC0A1F01DC0A2F01EC0AF
:101F2800A3F01FC0A4F01200FF0E0101AC152C6F26
:101F3800FF0EAD152D6FFF0EAE152E6F7F0EAF1570
:101F48002F6F170E0001A96F2CC1AAF02DC1ABF09D
:101F58002EC1ACF02FC1ADF0A96701D007D0AD35C7
:101F6800AD33AC33AB33AA33A92FF6D7810E0001BA
:101F7800AA250101A06FFF0E0001AB210101A16F8D
:101F8800FF0E0001AC210101A26FFF0E0001AD217F
:101F98000101A36F000E886F000E896F000E8A6F13
:101FA800000E8B6F2FBFFCD02C05000E2D59000E94
:101FB8002E593F0E2F59D8A0F3D0A0C1A9F0010E79
:101FC8000001A927000EAA6F000EAB6F800EAC6F40
:101FD800000EAD6FA96701D007D0AD35AD33AC3376
:101FE800AB33AA33A92FF6D70101AC510001AA25BA
:101FF8000101886FAD510001AB210101896FAE511C
:102008000001AC2101018A6FAF510001AD2101012E
:102018008B6F810E0001A96FFF0EAA6FFF0EAB6FC9
:10202800FF0EAC6F170EAD6F88C1AEF089C1AFF06F
:102038008AC1B0F08BC1B1F0AD6701D007D0B1351E
:10204800B133B033AF33AE33AD2FF6D70001AE5155
:10205800A9250101A06F000E0001AA210101A16FAD
:10206800000E0001AB210101A26F000E0001AC219E
:102078000101A36FA0C1A9F0FF0E0001AA6FFF0E16
:10208800AB6F7F0EAC6F000EAD6FA96701D007D0A4
:10209800AD35AD33AC33AB33AA33A92FF6D7000136
:1020A800AA1DAE6FAB1DAF6FAC1DB06FAD1DB16F8C
:1020B800010188510001AE150101B86F8951000175
:1020C800AF150101B96F8A510001B0150101BA6F4E
:1020D8008B510001B1150101BB6FB8C1B0F1B9C195
:1020E800B1F1BAC1B2F1BBC1B3F1A05117080001F7
:1020F800A96FFF0E010188150001AA6FFF0E0101EB
:1021080089150001AB6F7F0E01018A150001AC6FC4
:10211800000E01018B150001AD6F000EAA11AE6F04
:10212800000EAB11AF6F800EAC11B06F000EAD1189
:10213800B16FA96701D007D0B135B133B033AF3330
:10214800AE33A92FF6D7AEC088F1AFC089F1B0C0C1
:102158008AF1B1C08BF10101AFAF08D08B1F8A1F84
:10216800891F886D000E89238A238B239CC160F008
:102178009DC161F09EC162F09FC163F0B0C164F07F
:10218800B1C165F0B2C166F0B3C167F08DEC2AF059
:1021980060C09CF161C09DF162C09EF163C09FF177
:1021A80064C10CF065C10DF066C10EF067C10FF097
:1021B8009CC110F09DC111F09EC112F09FC113F097
:1021C80072EC1CF00CC0B0F10DC0B1F10EC0B2F150
:1021D8000FC0B3F1B0C1B8F1B1C1B9F1B2C1BAF130
:1021E800B3C1BBF1B8C194F1B9C195F1BAC196F1C7
:1021F800BBC197F1000E01019415B86F800E9515BB
:10220800B96FFF0E9615BA6FFF0E9715BB6FB8C161
:10221800B0F1B9C1B1F1BAC1B2F1BBC1B3F1B0C14A
:102228001CF0B1C11DF0B2C11EF0B3C11FF0000E09
:10223800206E720E216E310E226E3F0E236EC9EC97
:102248001AF01CC074F11DC075F11EC076F11FC0D4
:1022580077F19CC164F09DC165F09EC166F09FC195
:1022680067F0B0C160F0B1C161F0B2C162F0B3C152
:1022780063F08DEC2AF060C098F161C099F162C0FA
:102288009AF163C09BF1180E206E720E216E310E0A
:10229800226E3F0E236E98C164F099C165F09AC111
:1022A80066F09BC167F064C160F065C161F066C10A
:1022B80062F067C163F08DEC2AF060C01CF061C069
:1022C8001DF062C01EF063C01FF0C9EC1AF01CC0FC
:1022D80014F11DC015F11EC016F11FC017F114C16D
:1022E8000CF015C10DF016C10EF017C10FF08C0ED1
:1022F800206EBE0E216EBF0E226E350E236EB0C14B
:102308001CF0B1C11DF0B2C11EF0B3C11FF0C9EC81
:102318001AF01CC010F01DC011F01EC012F01FC032
:1023280013F072EC1CF00CC078F10DC079F10EC0FE
:102338007AF10FC07BF174C10CF075C10DF076C154
:102348000EF077C10FF078C110F079C111F07AC1A1
:1023580012F07BC113F072EC1CF00CC0B4F10DC08C
:10236800B5F10EC0B6F10FC0B7F174C164F075C114
:1023780065F076C166F077C167F0B4C160F0B5C1A9
:1023880061F0B6C162F0B7C163F08DEC2AF060C0AD
:1023980098F161C099F162C09AF163C09BF178C16C
:1023A80060F079C161F07AC162F07BC163F098C1D5
:1023B80064F099C165F09AC166F09BC167F08DEC35
:1023C8002AF060C044F161C045F162C046F163C0C3
:1023D80047F1B4C11CF0B5C11DF0B6C11EF0B7C1BC
:1023E8001FF0B4C120F0B5C121F0B6C122F0B7C1C9
:1023F80023F0C9EC1AF01CC0B0F11DC0B1F11EC029
:10240800B2F11FC0B3F10E0E106EEA0E116EDD0EA2
:10241800126EB50E136E4C0E206EBB0E216E310E71
:10242800226E330E236EB0C11CF0B1C11DF0B2C1D3
:102438001EF0B3C11FF0C9EC1AF01CC00CF01DC08F
:102448000DF01EC00EF01FC00FF072EC1CF00CC097
:10245800A4F10DC0A5F10EC0A6F10FC0A7F1550E4D
:10246800106EB30E116E8A0E126E380E136EB0C156
:1024780020F0B1C121F0B2C122F0B3C123F0A4C150
:102488001CF0A5C11DF0A6C11EF0A7C11FF0C9EC24
:102498001AF01CC00CF01DC00DF01EC00EF01FC0BD
:1024A8000FF072EC1CF00CC058F10DC059F10EC0C1
:1024B8005AF10FC05BF1610E106E0B0E116E360EE5
:1024C800126EBB0E136EB0C120F0B1C121F0B2C1C3
:1024D80022F0B3C123F058C11CF059C11DF05AC1F4
:1024E8001EF05BC11FF0C9EC1AF01CC00CF01DC037
:1024F8000DF01EC00EF01FC00FF072EC1CF00CC0E7
:1025080048F10DC049F10EC04AF10FC04BF1AB0EB6
:10251800106EAA0E116E2A0E126E3E0E136EB0C108
:1025280020F0B1C121F0B2C122F0B3C123F048C1FB
:102538001CF049C11DF04AC11EF04BC11FF0C9EC87
:102548001AF01CC00CF01DC00DF01EC00EF01FC00C
:102558000FF072EC1CF00CC038F10DC039F10EC050
:102568003AF10FC03BF1B4C160F0B5C161F0B6C13A
:1025780062F0B7C163F0B0C120F0B1C121F0B2C1BF
:1025880022F0B3C123F038C11CF039C11DF03AC1A3
:102598001EF03BC11FF0C9EC1AF01CC064F01DC04E
:1025A80065F01EC066F01FC067F08DEC2AF060C0B1
:1025B80080F161C081F162C082F163C083F1000ED5
:1025C800106E000E116E000E126EC00E136E80C1DA
:1025D8000CF081C10DF082C10EF083C10FF072ECD6
:1025E8001CF00CC06CF00DC06DF00EC06EF00FC08A
:1025F8006FF080C120F081C121F082C122F083C137
:1026080023F0B4C11CF0B5C11DF0B6C11EF0B7C1AE
:102618001FF0C9EC1AF01CC068F01DC069F01EC09C
:102628006AF01FC06BF0F8EC1DF068C03CF169C09F
:102638003DF16AC03EF16BC03FF144C110F045C1A5
:1026480011F046C112F047C113F044C120F045C152
:1026580021F046C122F047C123F0B4C11CF0B5C136
:102668001DF0B6C11EF0B7C11FF0C9EC1AF01CC0AE
:102678000CF01DC00DF01EC00EF01FC00FF072EC64
:102688001CF00CC018F10DC019F10EC01AF10FC0E2
:102698001BF13CC160F03DC161F03EC162F03FC139
:1026A80063F018C164F019C165F01AC166F01BC166
:1026B80067F08DEC2AF060C04CF161C04DF162C04A
:1026C8004EF163C04FF1B4C164F0B5C165F0B6C155
:1026D80066F0B7C167F04CC160F04DC161F04EC102
:1026E80062F04FC163F08DEC2AF060C098F161C0D0
:1026F80099F162C09AF163C09BF1000E0001606F0E
:10270800000E616F800E626F3F0E636F98C164F0B8
:1027180099C165F09AC166F09BC167F08DEC2AF00B
:1027280060C0B4F161C0B5F162C0B6F163C0B7F181
:10273800B4C1B8F1B5C1B9F1B6C1BAF1B7C1BBF10D
:10274800B8C1ACF1B9C1ADF1BAC1AEF1BBC1AFF11D
:1027580088C1A9F089C1AAF08AC1ABF08BC1ACF0DD
:10276800170ED8900001A937AA37AB37AC37E82E37
:10277800F8D7A9510101AC270001AA510101AD23E5
:102788000001AB510101AE230001AC510101AF239F
:10279800170E0001A96FACC1AAF0ADC1ABF0AEC174
:1027A800ACF0AFC1ADF0A96701D007D0AD35AD33FE
:1027B800AC33AB33AA33A92FF6D70001ADBF07D08E
:1027C800AD51AC11AB111AE1AA05D8B017D0B4C1FC
:1027D80035F0B5C136F0B6C137F0B7C138F088C1A9
:1027E80039F089C13AF061EC20F035C0B4F136C057
:1027F800B5F137C0B6F138C0B7F110D0ACC1B8F1F7
:10280800ADC1B9F1AEC1BAF1AFC1BBF1B8C1B4F154
:10281800B9C1B5F1BAC1B6F1BBC1B7F184C11CF0F9
:1028280085C11DF086C11EF087C11FF0B4C120F01C
:10283800B5C121F0B6C122F0B7C123F0C9EC1AF036
:102848001CC0A1F01DC0A2F01EC0A3F01FC0A4F0C0
:102858001200E40E0D6E010E0E6E63EC2BF0000EEE
:102868000001D26F010ED16F4ED0E40ED125D96E82
:10287800010ED221DA6E300EDF6009D0E40ED125C8
:10288800D96E010ED221DA6E210EDF6012D0E40E6D
:10289800D125D96E010ED221DA6E3A0EDF6009D049
:1028A800E40ED125D96E010ED221DA6E200EDF603A
:1028B80028D0000E9D6F020E9E6F2B0E9F6F7E0E0E
:1028C800A06FE40ED125D96E010ED221DA6EDF5049
:1028D8003B6E3B50A16FA26B010ED125A36F000E7A
:1028E800D221A46F13EC2AF0000E0D6E020E0E6EAC
:1028F80063EC2BF0000E0201006F000E0001EE6F7A
:102908001200D14BD22BE40ED125D96E010ED22163
:10291800DA6EDF50D8A4A9D7660E0101E419D8B43D
:1029280004D0460EE419D8A477D0200EE46FE40E44
:10293800186E010E196E30EC22F018C0E1F019C0C3
:10294800E2F01AC0E3F01BC0E4F00001E4BF0AD0D3
:10295800E45119E1400EE15D420EE2590F0EE359D0
:10296800D8B011D0000E9D6F020E9E6F770E9F6F2C
:102978007E0EA06F13EC2AF0000E0D6E020E0E6E86
:1029880063EC2BF0B7D7E4BF1BD0E45108E1410E4C
:10299800E15D4B0EE2594C0EE359D8A011D0000E60
:1029A8009D6F020E9E6F9B0E9F6F7E0EA06F13ECA5
:1029B8002AF0000E0D6E020E0E6E63EC2BF09AD705
:1029C800E1C0F6F0E2C0F7F0E3C0F8F0E4C0F9F0D7
:1029D800F6C0BCF0F7C0BDF0F8C0BEF0F9C0BFF05B
:1029E80098EC23F0000E00019D6F020E9E6F7B0E87
:1029F8009F6F7F0EA06FF6C0A1F0F7C0A2F0F8C0DD
:102A0800A3F0F9C0A4F013EC2AF0000E0D6E020E2C
:102A18000E6E63EC2BF06ED7630EE419D8B404D0B5
:102A2800430EE419D8A46AD0200EE46FE40E186EA1
:102A3800010E196E30EC22F018C04CF019C04DF0A0
:102A48001AC04EF01BC04FF04FBE08D04F504E106A
:102A58004D1016E1020E4C5CD8B012D0000E0001E9
:102A68009D6F020E9E6F420E9F6F7F0EA06F13EC3C
:102A78002AF0000E0D6E020E0E6E63EC2BF03AD7A4
:102A88004FBE1AD04F504E1005E14C047D0E4D58E4
:102A9800D8A012D0000E00019D6F020E9E6FE10EAD
:102AA8009F6F7E0EA06F13EC2AF0000E0D6E020EC3
:102AB8000E6E63EC2BF01ED74CC048F04DC049F0A9
:102AC8004EC04AF04FC04BF0000E00019D6F020E41
:102AD8009E6F5F0E9F6F7F0EA06F48C0A1F049C028
:102AE800A2F04AC0A3F04BC0A4F013EC2AF0000EE9
:102AF8000D6E020E0E6E63EC2BF0FCD6420EE4193E
:102B0800D8B404D0620EE419D8A43DD0200EE46FE6
:102B1800E40E136E010E146ED8EC24F013C042F0CC
:102B280014C043F04204010E4358D8A012D0000E3E
:102B380000019D6F020E9E6F520E9F6F7E0EA06F5A
:102B480013EC2AF0000E0D6E020E0E6E63EC2BF0E5
:102B5800D1D642C040F043C041F0000E00019D6F45
:102B6800020E9E6F220E9F6F7F0EA06F40C0A1F0D5
:102B780041C0A2F013EC2AF0000E0D6E020E0E6E8C
:102B880063EC2BF0B7D64E0EE419D8B404D06E0E11
:102B9800E419D8A453D0200EE46FE40E136E010E8E
:102BA800146ED8EC24F013C052F014C053F05250F5
:102BB8005310D8A412D0000E00019D6F020E9E6F14
:102BC800020E9F6F7F0EA06F13EC2AF0000E0D6EA1
:102BD800020E0E6E63EC2BF08DD65204010E535884
:102BE800D8A012D0000E00019D6F020E9E6FBF0E7E
:102BF8009F6F7E0EA06F13EC2AF0000E0D6E020E72
:102C08000E6E63EC2BF076D652C050F053C051F0E4
:102C1800000E00019D6F020E9E6F010E9F6F7E0ECB
:102C2800A06F50C0A1F051C0A2F013EC2AF0000E22
:102C38000D6E020E0E6E63EC2BF05CD6490EE41995
:102C4800D8B404D0690EE419D8A45DD0000E0001F0
:102C58009D6F020E9E6FD90E9F6F7F0EA06FF6C0FC
:102C6800A1F0F7C0A2F0F8C0A3F0F9C0A4F013ECEB
:102C78002AF0000E0D6E020E0E6E63EC2BF0000EA5
:102C880000019D6F020E9E6FEC0E9F6F7F0EA06F6E
:102C980048C0A1F049C0A2F04AC0A3F04BC0A4F0BC
:102CA80013EC2AF0000E0D6E020E0E6E63EC2BF084
:102CB800000E00019D6F020E9E6FAF0E9F6F7F0E7C
:102CC800A06F40C0A1F041C0A2F013EC2AF0000EA2
:102CD8000D6E020E0E6E63EC2BF0000E00019D6F60
:102CE800020E9E6F970E9F6F7F0EA06F50C0A1F0CF
:102CF80051C0A2F013EC2AF0000E0D6E020E0E6EFB
:102D080063EC2BF0F7D5540EE419D8B404D0740E44
:102D1800E419D8A41CD00E01C59BC599CEEC2DF0A2
:102D2800000E0201006F000E0001EE6F000EFB6F37
:102D3800020EFA6F50C052F051C053F040C042F03A
:102D480041C043F013EC2CF078EC2DF01200000E8B
:102D580000019D6F020E9E6FC60E9F6F7F0EA06FC3
:102D6800E4C1A1F0A26B13EC2AF0000E0D6E020E66
:102D78000E6E63EC2BF0BED570C085F071C086F086
:102D880072C087F073C088F085C09DF086C09EF041
:102D980087C09FF088C0A0F0000E00019D15746FD9
:102DA800000E9E15756F800E9F15766F7F0EA0150D
:102DB800776F800E761933E17F0E771974117511CC
:102DC800D8A42DD070C020F071C021F072C022F0BC
:102DD80073C023F070C01CF071C01DF072C01EF0EB
:102DE80073C01FF0C9EC1AF01CC00CF01DC00DF028
:102DF8001EC00EF01FC00FF070C010F071C011F0AF
:102E080072C012F073C013F072EC1CF00CC070F0BA
:102E18000DC071F00EC072F00FC073F01200A0BFA9
:102E280007D0A0519F119E1133E19D05D8B030D035
:102E3800FF0E9D15746FFF0E9E15756FFF0E9F1583
:102E4800766F7F0EA015776F745175117611771113
:102E5800D8A409D070C070F071C071F072C072F05F
:102E680073C073F01200A0AF13D0000EE66F210EEE
:102E7800E56F010E0C6E7F0E0D6EFFEC2CF00CC092
:102E880070F00DC071F00EC072F00FC073F0120038
:102E9800170E746F9DC075F09EC076F09FC077F0D6
:102EA800A0C078F0746701D007D0783578337733CD
:102EB80076337533742FF6D775C095F076C096F0D3
:102EC80077C097F078C098F0000195519611971146
:102ED8009811D8A42AD0000E816F000E826F000EC0
:102EE800836F000E846F0BD0D8909D379E379F3725
:102EF800A037010E8127000E8223832384239FAFEE
:102F0800F3D7FF0E8125746FFF0E8221756FFF0EB8
:102F18008321766FFF0E8421776F7451955F755109
:102F2800965B7651975B7751985B810E9527FF0EDC
:102F38009623FF0E9723FF0E9823FF0E9D15746F9F
:102F4800FF0E9E15756F7F0E9F15766F000EA015EC
:102F5800776F000E74119D6F000E75119E6F800EB5
:102F680076119F6F000E7711A06F95A108D09D5123
:102F78009D279E519E239F519F23A051A0239835A2
:102F880098339733963395339D519D279E519E23B1
:102F98009F519F23A051A023000E7D6F000E7E6FCE
:102FA800000E7F6F000E806F7DC089F07EC08AF0B2
:102FB8007FC08BF080C08CF0000E996F000E9A6F66
:102FC800000E9B6F010E9C6F43D099517D258D6F2C
:102FD8009A517E218E6F9B517F218F6F9C5180214A
:102FE800906F8D519D5D8E519E598F519F59A05163
:102FF800800A746F9051800A7459D8A01CD09951D6
:103008008D257D6F9A518E217E6F9B518F217F6F09
:103018009C519021806F8D519D5F8E519E5B8F5189
:103028009F5B9051A05B995189279A518A239B51A4
:103038008B239C518C239D519D279E519E239F51EC
:103048009F23A051A023D8909C339B339A33993364
:1030580099519A119B119C11D8A4B7D79D519E11D3
:103068009F11A011D8B454D0000E916F000E926F2A
:10307800800E936F3F0E946F91C068F092C069F014
:1030880093C06AF094C06BF0000E6C6F000E6D6F09
:10309800800E6E6F3F0E6F6F07EC26F00001D8A010
:1030A80037D0000E916F000E926F800E936F3F0E17
:1030B800946F000E686F000E696F800E6A6F3F0E86
:1030C8006B6F91C06CF092C06DF093C06EF094C0BD
:1030D8006FF007EC26F00001D8B006D0020E892761
:1030E800000E8A238B2313D0010E8915746F000EEE
:1030F8008A15756F000E8B15766F000E8C15776F1D
:103108007451892775518A2376518B2377518C23E3
:1031180089C074F08AC075F08BC076F08CC077F0E7
:1031280077357733763375337433000E74259D6F96
:10313800000E75219E6F000E76219F6F3F0E77213E
:10314800A06F95C074F096C075F097C076F098C0DF
:1031580077F0170ED8907437753776377737E82EAB
:10316800F9D774519D2775519E2376519F23775126
:10317800A0239DC085F09EC086F09FC087F0A0C0A8
:1031880088F085C091F086C092F087C093F088C01F
:1031980094F091C070F092C071F093C072F094C036
:1031A80073F0120074C0D9FF75C0DAFFDECFF6FFE6
:1031B800DDCFF7FF0800F550250AD8A4CCD174C09C
:1031C800D9FF75C0DAFFDE2A000EDD22000E0001ED
:1031D800EA6F000EE96FE9C03EF0EAC03FF03C68D4
:1031E8003D6874C0D9FF75C0DAFFDECFF6FFDDCFCA
:1031F800F7FF0800F550630AD8A426D074C0D9FF99
:1032080075C0DAFFDE2A000EDD2276C0D9FF77C04E
:10321800DAFFDFCF78F0020EDE26DFCF79F0000E7E
:10322800DD2278C0D9FF79C0DAFFDF50866F72C01F
:1032380027F073C028F086C029F065EC2AF027C073
:1032480072F028C073F0120074C0D9FF75C0DAFF9D
:10325800DECFF6FFDDCFF7FF0800F550640AD8B4DB
:103268000DD074C0D9FF75C0DAFFDECFF6FFDDCF11
:10327800F7FF0800F550690AD8A43FD074C0D9FFF9
:1032880075C0DAFFDE2A000EDD2276C0D9FF77C0CE
:10329800DAFFDFCF78F0020EDE26DFCF79F0000EFE
:1032A800DD2278C0D9FF79C0DAFFDECF87F0DDCF25
:1032B80088F0000E88BFFF0E896F8A6F8B6F8C6F46
:1032C8008D6F8E6F72C027F073C028F087C029F009
:1032D80088C02AF089C02BF08AC02CF08BC02DF052
:1032E8008CC02EF08DC02FF08EC030F03DEC1FF05A
:1032F80027C072F028C073F0120074C0D9FF75C0DF
:10330800DAFFDECF0CF0DDCF0DF0F60E0E6E7F0E7D
:103318000F6E000E116E020E106EE5EC27F00C50C9
:103328000D10D8B416D074C0D9FF75C0DAFFDECF3F
:103338000CF0DDCF0DF0F90E0E6E7F0E0F6E000E45
:10334800116E020E106EE5EC27F00C500D10D8A48B
:1033580043D0020E74C0D9FF75C0DAFFDE26000E16
:10336800DD2276C0D9FF77C0DAFFDFCF78F0040E10
:10337800DE26DFCF79F0000EDD2278C0D9FF79C0D4
:10338800DAFFDECF7AF0DECF7BF0DECF7CF0DECF67
:103398007DF07AC07EF07BC07FF07CC080F07DC07D
:1033A80081F00001826B81BF826982C083F082C094
:1033B80084F082C085F07EC087F07FC088F080C02E
:1033C80089F081C08AF082C08BF083C08CF084C001
:1033D8008DF085C08EF076D774C0D9FF75C0DAFF3E
:1033E800DECFF6FFDDCFF7FF0800F550750AD8A449
:1033F80041D074C0D9FF75C0DAFFDE2A000EDD2285
:1034080076C0D9FF77C0DAFFDFCF78F0020EDE266C
:10341800DFCF79F0000EDD2278C0D9FF79C0DAFF5E
:10342800DECF7AF0DDCF7BF07AC08FF07BC090F0F2
:103438000001916B926B936B946B956B966B72C05A
:1034480027F073C028F08FC029F090C02AF091C0EF
:103458002BF092C02CF093C02DF094C02EF095C0A4
:103468002FF096C030F055EC21F027C072F028C03C
:1034780073F0120074C0D9FF75C0DAFFDECF0CF00C
:10348800DDCF0DF0FC0E0E6E7F0E0F6E000E116E6E
:10349800020E106EE5EC27F00C500D10D8A42AD0BF
:1034A800020E74C0D9FF75C0DAFFDE26000EDD22D9
:1034B80076C0D9FF77C0DAFFDFCF78F0040EDE26BA
:1034C800DFCF79F0000EDD2278C0D9FF79C0DAFFAE
:1034D800DECF7AF0DECF7BF0DECF7CF0DECF7DF082
:1034E80000017A518F6F7B51906F7C51916F7D51A4
:1034F800926FA1D774C0D9FF75C0DAFFDECFF6FF8F
:10350800DDCFF7FF0800F550250AD8A417D074C0FE
:10351800D9FF75C0DAFFDE2A000EDD22000E0D6E1F
:10352800250E0C6E72C00EF073C00FF03AEC28F046
:10353800000E0001736F010E726F120074C0D9FF84
:1035480075C0DAFFDE2A000EDD22000E0001736F5F
:10355800000E726F120074C0D9FF75C0DAFFDECF9B
:10356800F6FFDDCFF7FF0800F5500C6E0D6A72C04C
:103578000EF073C00FF03AEC28F074C0D9FF75C094
:10358800DAFFDE2A000EDD22D3D71F50800B286E0B
:103598001F501F242E6E1EBE2E802E50D8B40DD064
:1035A8002E28D8A408D0000E1C6E000E1D6E000E2A
:1035B8001E6E000E1F6E1E8E08D0000E1C6E000EB2
:1035C8001D6E000E1E6E000E1F6E2350800B281AF3
:1035D800235023242D6E22BE2D802D50D8B40DD01B
:1035E8002D28D8A408D0000E206E000E216E000EE3
:1035F800226E000E236E228E08D0000E206E000E62
:10360800216E000E226E000E236E2D50D8B403D00A
:103618002E50D8A409D0000E1C6E000E1D6E000E90
:103628001E6E000E1F6E120022501C02F3CF33F0E4
:10363800F4CF34F03350296E2A6A2B6A2C6A34503E
:103648002F6E306A316A326A21501D02F3CF33F08F
:10365800F4CF34F033502926000E2A222B222C22B4
:1036680034502F26000E30223122322220501E02E2
:10367800F3CF33F0F4CF34F033502926000E2A224A
:103688002B222C2234502F26000E302231223222B7
:103698002BC02CF02AC02BF029C02AF0296A205010
:1036A8001D02F3CF33F0F4CF34F0335029263450D1
:1036B8002A22000E2B22000E2C2221501C02F3CFAE
:1036C80033F0F4CF34F03350292634502A22000E38
:1036D8002B22000E2C222BC02CF02AC02BF029C044
:1036E8002AF0296A20501C02F3CF33F0F4CF34F0CB
:1036F8003350292634502A22000E2B22000E2C2269
:1037080022501D02F3CF33F0F4CF34F033502F267C
:1037180034503022000E3122000E322221501E0277
:10372800F3CF33F0F4CF34F033502F263450302217
:10373800000E3122000E322222501E02F3CF33F047
:10374800F4CF34F03350246E3450256E266A276A3D
:1037580026C027F025C026F024C025F0246A24506E
:103768002F2625503022265031222750322229C0B8
:1037780024F02AC025F02BC026F02CC027F0190E03
:1037880005D0D8902732263225322432E82EF9D7B0
:1037980024502F26255030222650312227503222FD
:1037A8002BC02CF02AC02BF029C02AF0296A2D50F2
:1037B8002EC024F0256A2426000E2522820E2424F9
:1037C800336EFF0E2520346E0FD0D8902F3630364A
:1037D800313632362CBE2F80D89029362A362B36F1
:1037E8002C363306D8A0340631AEEFD7000E2D6E36
:1037F8002CAE17D0FF0E2914246EFF0E2A14256E46
:10380800FF0E2B14266E7F0E2C14276E24502510C5
:1038180026102710D8B403D0010E2D6E02D02FB079
:10382800FBD72D50D8B41FD0010E2F26000E302202
:103838003122322232A017D02FC024F030C025F018
:1038480031C026F032C027F02734273226322532FD
:10385800243224C02FF025C030F026C031F027C014
:1038680032F0334A342A34BE0DD0345003E13328C1
:10387800D8A008D0000E2F6E000E306E800E316E6C
:103888007F0E20D034BE05D034500EE13304D8B0BA
:103898000BD0000E2F6E000E306E000E316E000E33
:1038A800326E000E286E0FD033C02EF0FF0E2F168A
:1038B800FF0E30167F0E3116000E32162EB0318EE6
:1038C800D8902E30326E285032122FC01CF030C0E3
:1038D8001DF031C01EF032C01FF012000F50800BD7
:1038E800186E0F500F241A6E0EBE1A801A50D8B4D4
:1038F8000DD01A28D8A408D0000E0C6E000E0D6E3C
:10390800000E0E6E000E0F6E0E8E06D0000E0C6EA0
:10391800000E0D6E000E0E6E000E0F6E1350800B13
:10392800196E18501918D8A4188C13501324196E2E
:1039380012BE19801950D8B40DD01928D8A408D0AF
:10394800000E106E000E116E000E126E000E136E39
:10395800128E06D0000E106E000E116E000E126E42
:10396800000E136E1A50195CD8B022D018AC02D0D1
:10397800800E181A1AC01BF019C01AF01BC019F0D3
:103988000CC01BF010C00CF01BC010F00DC01BF0D9
:1039980011C00DF01BC011F00EC01BF012C00EF0CC
:1039A8001BC012F00FC01BF013C00FF01BC013F0A8
:1039B800000E1B6E1A5019C014F0156A145E000E22
:1039C800155A15BE2CD0155004E11A0E145CD8A057
:1039D80026D00C500D100E100F10D8B402D0010EC6
:1039E80001D0000E1B6E000E0C6E000E0D6E000E48
:1039F8000E6E000E0F6E19C01AF015D01BA005D060
:103A0800D8901B3001091B6E02D0D8901B320CB025
:103A18001B8E0F340F320E320D320C321A2A195007
:103A28001A5CD8A0EBD718BC28D01A50D8A409D053
:103A3800000E0C6E000E0D6E000E0E6E000E0F6E58
:103A4800120010500C2611500D2212500E22135045
:103A58000F220FA071D01BA005D0D8901B300109F0
:103A68001B6E02D0D8901B320CB01B8E0F340F3255
:103A78000E320D320C321A2A5FD010500C5C1150E5
:103A88000D5812500E580F50800A146E1350800AA9
:103A98001458D8B025D00C50105C146E0D50115825
:103AA800156E0E501258166E0F501358176EFF0EE3
:103AB80014240C6EFF0E15200D6EFF0E16200E6ED0
:103AC800FF0E17200F6E800E181A1B6C1B50D8A4FF
:103AD8000FD0010E0C26000E0D220E220F2208D048
:103AE80010500C5E11500D5A12500E5A13500F5AA6
:103AF8000C500D100E100F10D8A41CD01B50D8A4B9
:103B080019D0000E0C6E000E0D6E000E0E6E000E1B
:103B18000F6E1200D8900C360D360E360F361BBEBF
:103B28000C801BA002D0D88001D0D8901B361A5028
:103B3800D8A41A060EAEEED7000E196E1BAE0BD027
:103B48001BC014F07F0E1416D8B403D0010E196EE2
:103B580002D00CB0FBD71950D8B420D0010E0C26D7
:103B6800000E0D220E220F220FA018D00CC014F048
:103B78000DC015F00EC016F00FC017F0173417322D
:103B880016321532143214C00CF015C00DF016C0E0
:103B98000EF017C00FF01A28D8A41A2A1A28D8B479
:103BA80003D01A50D8A40DD0000E0C6E000E0D6E66
:103BB800000E0E6E000E0F6E1A50D8A402D0000E22
:103BC800186E1AA002D00E8E01D00E9ED8901A3010
:103BD8000F6E18BE0F8E0CC00CF00DC00DF00EC08D
:103BE8000EF00FC00FF0120000016B51800B746FC4
:103BF8006B516B257B6F6ABF7B817B51D8B40DD02D
:103C08007B29D8A408D0000E686F000E696F000EDB
:103C18006A6F000E6B6F6A8F06D0000E686F000E19
:103C2800696F000E6A6F000E6B6F6F51800B741B0B
:103C38006F516F257C6F6EBF7C817C51D8B40DD0DD
:103C48007C29D8A408D0000E6C6F000E6D6F000E92
:103C58006E6F000E6F6F6E8F06D0000E6C6F000EC9
:103C68006D6F000E6E6F000E6F6F6C516D116E11DF
:103C78006F11D8A417D0000E686F000E696F000E80
:103C88006A6F000E6B6F800E6A137F0E6B13745190
:103C98006B1368C068F069C069F06AC06AF06BC0ED
:103CA8006BF012007B51D8A409D0000E686F000E8B
:103CB800696F000E6A6F000E6B6F12007C517BC03B
:103CC80035F0366A355E000E365A7F0E3524756F2C
:103CD800000E3620766F68C070F069C071F06AC057
:103CE80072F06BC073F0000E686F000E696F000E03
:103CF8006A6F000E6B6F000E776F000E786F000E04
:103D0800796F000E7A6F000E7C6F28D07C51D8B482
:103D180011D0D8907037713772377337D8906837A9
:103D280069376A376B377ABF6881D89077377837C1
:103D380079377A376C51705D6D5171596E5172597E
:103D48006F517359D8A009D07A8D6C51705F6D513D
:103D5800715B6E51725B6F51735B7C2B190E7C65C6
:103D6800D5D77051711172117311D8B411D07781F0
:103D78000FD0D890683769376A376B377ABF688150
:103D8800D8907737783779377A377507D8A0760794
:103D98006AAFEFD7000E7C6F7AAF17D0FF0E77159A
:103DA800356EFF0E7815366EFF0E7915376E7F0E5D
:103DB8007A15386E3550361037103810D8B403D00D
:103DC800010E7C6F02D068B1FBD77C51D8B41FD0EC
:103DD800010E6827000E69236A236B236BA117D095
:103DE80068C035F069C036F06AC037F06BC038F08B
:103DF8003834383237323632353235C068F036C06A
:103E080069F037C06AF038C06BF0754B762B76BF17
:103E180010D0765103E17529D8A00BD0000E766F2B
:103E28007569000E686F000E696F000E6A6F000EEC
:103E38006B6F76BF05D0765111E17505D8B00ED0FD
:103E4800000E766F000E756F000E686F000E696FBA
:103E5800000E6A6F000E6B6F000E746F75C07BF0FA
:103E68007BA102D06A8F01D06A9FD8907B316B6F9B
:103E78000ED729C068F02AC069F02BC06AF02CC0A0
:103E88006BF02DC06CF02EC06DF02FC06EF030C0FE
:103E98006FF000016FAF02D0010E01D0000E666F07
:103EA800676B66516711D8B410D06F1F6E1F6D1FF6
:103EB8006C1F6B1F6A1F691F686D000E69236A23D8
:103EC8006B236C236D236E236F233DAE3E923DBE64
:103ED80005D03D5008E13C04D8B005D0000E636F12
:103EE800010E626F04D03CC062F03DC063F0E9C0CF
:103EF80064F0EAC065F066516711D8A402D03EA408
:103F080003D06407D8A06507000E716F1F0E706F8D
:103F1800000E0101E36F7DD07007D8A07107C40EB1
:103F28007025D96E010E7121DA6E68C00CF069C077
:103F38000DF06AC00EF06BC00FF06CC010F06DC0D1
:103F480011F06EC012F06FC013F00A0E146E000E5E
:103F5800156E000E166E000E176E000E186E000E0F
:103F6800196E000E1A6E000E1B6E75EC25F00CC053
:103F780031F00DC032F00EC033F00FC034F010C075
:103F880035F011C036F012C037F013C038F031C028
:103F98001EF033C01FF0B1EC2BF01E50300FDF6E57
:103FA80000016207D8A063076407D8A0650768C046
:103FB8000CF069C00DF06AC00EF06BC00FF06CC059
:103FC80010F06DC011F06EC012F06FC013F00A0E41
:103FD800146E000E156E000E166E000E176E000E93
:103FE800186E000E196E000E1A6E000E1B6EF4ECA1
:103FF80022F00CC068F00DC069F00EC06AF00FC066
:104008006BF010C06CF011C06DF012C06EF013C0F0
:104018006FF0000171BF1FD0715103E17005D8A086
:104028001AD0685169116A116B116C116D116E11FA
:104038006F11D8A471D763BF05D0635102E162053F
:10404800D8B06AD765BF07D0655103E16405D8A029
:1040580002D03EB261D766516711D8A402D03EA4FF
:1040680017D07007D8A0710766516711D8A404D07B
:10407800000E616F2B0E03D0000E616F2D0E606F66
:10408800C40E7025D96E010E7121DA6E60C0DFFF93
:1040980027C01CF028C01DF0C40E70251E6E010E2E
:1040A80071211F6E64C020F065C021F08AEC28F0F1
:1040B8001CC027F01DC028F0120035C068F036C0BB
:1040C80069F037C06AF038C06BF03ABE56D03A5043
:1040D80004E1800E395CD8A050D068C01CF069C0DB
:1040E8001DF06AC01EF06BC01FF0000E206E000E9F
:1040F800216E000E226E7F0E236EC9EC1AF01CC0D2
:1041080068F01DC069F01EC06AF01FC06BF0810E18
:104118003926FF0E3A223ABE88D03A5004E1800E82
:10412800395CD8A082D068C01CF069C01DF06AC094
:104138001EF06BC01FF0000E206E000E216E000EE8
:10414800226E7F0E236EC9EC1AF01CC068F01DC0E9
:1041580069F01EC06AF01FC06BF0810E3926FF0E91
:104168003A223ABE62D03A5004E1800E395CD8A0B7
:104178005CD0000E3A6E7F0E57D03AAE56D0820E03
:10418800395CFF0E3A58D8B050D068C01CF069C0EE
:104198001DF06AC01EF06BC01FF0000E206E000EEE
:1041A800216E800E226E0C0E236EC9EC1AF01CC014
:1041B80068F01DC069F01EC06AF01FC06BF0660E83
:1041C8003926000E3A223AAE30D0820E395CFF0E04
:1041D8003A58D8B02AD068C01CF069C01DF06AC02F
:1041E8001EF06BC01FF0000E206E000E216E800EB8
:1041F800226E0C0E236EC9EC1AF01CC068F01DC0AC
:1042080069F01EC06AF01FC06BF0660E3926000EFA
:104218003A223AAE0AD0820E395CFF0E3A58D8B02C
:1042280004D0FF0E3A6E820E396E7F0E39240001DB
:10423800606F000E3A20616F626B636B170ED89047
:104248006037613762376337E82EF9D760C064F0AA
:1042580061C065F062C066F063C067F064C01CF0BE
:1042680065C01DF066C01EF067C01FF068C020F072
:1042780069C021F06AC022F06BC023F0C9EC1AF0C3
:104288001CC035F01DC036F01EC037F01FC038F016
:1042980035C035F036C036F037C037F038C038F0A2
:1042A80012003DAE3E923DBE05D03D5009E13C04B2
:1042B800D8B006D0000E0001616F010E606F04D007
:1042C8003CC060F03DC061F0E9C062F0EAC063F054
:1042D80029C064F02AC065F02BC066F02CC067F0D6
:1042E8002DC068F02EC069F02FC06AF030C06BF0A6
:1042F800000E00016D6F1F0E6C6F000E0101E36F61
:1043080077D06C07D8A06D07C40E6C25D96E010E46
:104318006D21DA6E64C00CF065C00DF066C00EF059
:1043280067C00FF068C010F069C011F06AC012F0E1
:104338006BC013F00A0E146E000E156E000E166E8A
:10434800000E176E000E186E000E196E000E1A6E13
:10435800000E1B6E8EEC27F00CC031F00DC032F051
:104368000EC033F00FC034F010C035F011C036F075
:1043780012C037F013C038F03150300FDF6E000133
:104388006007D8A061076207D8A0630764C00CF073
:1043980065C00DF066C00EF067C00FF068C010F081
:1043A80069C011F06AC012F06BC013F00A0E146EE7
:1043B800000E156E000E166E000E176E000E186EAB
:1043C800000E196E000E1A6E000E1B6E70EC26F0B1
:1043D8000CC064F00DC065F00EC066F00FC067F049
:1043E80010C068F011C069F012C06AF013C06BF019
:1043F80000016C516D11D8B41AD064516511661161
:104408006711681169116A116B11D8A47AD761BF55
:1044180005D0615102E16005D8B073D763BF07D0FA
:10442800635103E16205D8A002D03EB26AD727C023
:104438001CF028C01DF0C40E6C251E6E010E6D21E7
:104448001F6E62C020F063C021F08AEC28F01CC007
:1044580027F01DC028F01200000E286E000E296EED
:10446800000E2A6E000E2B6E000E226E000E216EBC
:1044780002D0184A192A010E276E18C0D9FF19C090
:10448800DAFF200EDE18D8B417D0F70E1C6EFF0E18
:104498001D6E18C0D9FF19C0DAFFDF501E6E1F6AE3
:1044A8001C501E261D501F221F5004E1050E1E5CC5
:1044B800D8A002D0000E276E27C023F0246A23500C
:1044C8002410D8B408D0D5D7000E226E010E216E64
:1044D800184A192A40D018C0D9FF19C0DAFFDF508E
:1044E8001C6E1D6A1D50000AD8A435D01C502B0A1A
:1044F800D8B4EED7060AD8B4E7D72DD018C0D9FF5C
:1045080019C0DAFFDF501C6ED00E1C241D6E1E6A07
:10451800FF0E1E221F6A206A28C00CF029C00DF069
:104528002AC00EF02BC00FF00A0E106E000E116E8E
:10453800000E126E000E136EE8EC29F01D500C5C94
:10454800286E1E500D58296E1F500E582A6E205086
:104558000F582B6EBDD7D00E1C6EFF0E1D6E18C0E7
:10456800D9FF19C0DAFFDF501E6E1F6A1C501E26C5
:104578001D501F221F5006E10A0E1E5CD8B002D043
:10458800010E01D0000E256E266A25502610D8A4EB
:10459800B5D721502210D8A41AD028C01CF029C0A1
:1045A8001DF02AC01EF02BC01FF01C1E1D1E1E1E53
:1045B8001F1E1C2A000E1D221E221F221CC018F0BE
:1045C8001DC019F01EC01AF01FC01BF0120028C031
:1045D80018F029C019F02AC01AF02BC01BF01200DD
:1045E800000E1D6E1BAE12D01B1E1A1E191E181EA1
:1045F800171E161E151E146C000E152216221722E1
:10460800182219221A221B22010E1D6E13AE12D077
:10461800131E121E111E101E0F1E0E1E0D1E0C6CD8
:10462800000E0D220E220F22102211221222132216
:10463800010E1D1A20EE1EF0070EDE6AE806FDE2E6
:104648001450151016101710181019101A101B10E6
:10465800D8B446D0010E1C6E0AD0D8901436153640
:1046680016361736183619361A361B361C2A1BAE5C
:10467800F4D7D8901E361F362036213622362336F8
:104688002436253614500C5C15500D5816500E580B
:1046980017500F5818501058195011581A501258CE
:1046A8001B501358D8A011D014500C5E15500D5A39
:1046B80016500E5A17500F5A1850105A1950115AAE
:1046C8001A50125A1B50135A1E80D8901B321A3295
:1046D8001932183217321632153214321C2EC9D735
:1046E8001D50D8B410D0251E241E231E221E211EA4
:1046F800201E1F1E1E6C000E1F2220222122222295
:104708002322242225221EC00CF01FC00DF020C039
:104718000EF021C00FF022C010F023C011F024C009
:1047280012F025C013F01200000E0001A56F000E54
:10473800A66FE00EA76F410EA86F000EA16F000EC6
:10474800A26F000EA36F400EA46F5BEC00F0A1C037
:10475800C5F0A2C0C6F0A3C0C7F0A4C0C8F0200E20
:1047680000016C6FBC0E6D6FBE0E6E6F4B0E6F6FDF
:10477800C5C020F0C6C021F0C7C022F0C8C023F0D1
:10478800BCC00CF0BDC00DF0BEC00EF0BFC00FF035
:10479800010E38EC24F00CC01CF00DC01DF00EC04A
:1047A8001EF00FC01FF0C9EC1AF01CC068F01DC045
:1047B80069F01EC06AF01FC06BF0F8EC1DF068C00D
:1047C800B2F069C0B3F06AC0B4F06BC0B5F0D7EC12
:1047D80026F0B2C0CDF0B3C0CEF0B4C0CFF0B5C0B3
:1047E800D0F00E0E0001C06FCDC0C1F0CEC0C2F037
:1047F800CFC0C3F0D0C0C4F0C06701D007D0C43563
:10480800C433C333C233C133C02FF6D7FF0E000100
:10481800C115C96F3F0EC215CA6FFF0ECD15CB6FFC
:104828003F0ECE15CC6FCC8DCA8D210E0D6E000EAD
:104838000C6EB2EC2CF0CBC00CF0CCC00DF0B2EC8E
:104848002CF0C9C00CF0CAC00DF0B2EC2CF0C00EB0
:104858000D6E000E0C6EB2EC2CF0200E0D6E280EB4
:104868000C6EB2EC2CF01200146E1450D8A40FAEDB
:104878001AD00CC010F00DC011F00EC012F00FC00D
:1048880013F0101E111E121E131E102A000E1122E4
:104898001222132210C016F011C017F012C018F01F
:1048A80013C019F008D00CC016F00DC017F00EC0D8
:1048B80018F00FC019F00C500D100E100F10D8A4DE
:1048C80009D0000E0C6E000E0D6E000E0E6E000E5E
:1048D8000F6E1200960E156E06D0152AD890193252
:1048E800183217321632000E1614106E000E1714F6
:1048F800116E000E1814126EFE0E1914136E10505D
:10490800111012101310D8B40DD0E7D7152A010EC4
:104918001626000E172218221922D890193218329A
:1049280017321632000E1614106E000E1714116E80
:10493800000E1814126EFF0E1914136E1050111079
:1049480012101310D8B407D0E1D71506D890163630
:1049580017361836193618BE03D0020E1560F5D76B
:1049680015A0189ED890153215C010F0116A126A59
:10497800136A10C013F0126A116A106A10501612E6
:104988001150171212501812135019121450D8A49B
:104998000FAE01D0198E16C00CF017C00DF018C05C
:1049A8000EF019C00FF01200000E216E000E206EDE
:1049B800000E1A6E000E196E02D0134A142A010E48
:1049C8001F6E13C0D9FF14C0DAFF200EDE18D8B44A
:1049D80017D0F70E156EFF0E166E13C0D9FF14C050
:1049E800DAFFDF50176E186A15501726165018226E
:1049F800185004E1050E175CD8A002D0000E1F6EF7
:104A08001FC01BF01C6A1B501C10D8B408D0D5D787
:104A1800000E1A6E010E196E134A142A2ED013C0F6
:104A2800D9FF14C0DAFFDF50156E166A1650000A57
:104A3800D8A423D015502B0AD8B4EED7060AD8B478
:104A4800E7D71BD020C00CF021C00DF0000E0F6E70
:104A58000A0E0E6EDAEC2CF013C0D9FF14C0DAFF80
:104A6800DF50156E15500C5E000E0D5A300E0C24DA
:104A7800206E000E0D20216ECFD7D00E156EFF0EC2
:104A8800166E13C0D9FF14C0DAFFDF50176E186A0C
:104A98001550172616501822185006E10A0E175CF2
:104AA800D8B002D0010E01D0000E1D6E1E6A1D5036
:104AB8001E10D8A4C7D719501A10D8A40DD020C0DA
:104AC80015F021C016F0151E161E154A162A15C017
:104AD80013F016C014F0120020C013F021C014F017
:104AE8001200000E1D6E13AE12D0131E121E111EE0
:104AF800101E0F1E0E1E0D1E0C6C000E0D220E2217
:104B08000F221022112212221322010E1D6E1BAE3B
:104B180010D01B1E1A1E191E181E171E161E151E33
:104B2800146C000E152216221722182219221A2296
:104B38001B221450151016101710181019101A10DF
:104B48001B10D8B43CD0010E1C6E0AD0D890143675
:104B5800153616361736183619361A361B361C2AE5
:104B68001BAEF4D714500C5C15500D5816500E5847
:104B780017500F5818501058195011581A501258E9
:104B88001B501358D8A010D014500C5E15500D5A55
:104B980016500E5A17500F5A1850105A1950115AC9
:104BA8001A50125A1B50135AD8901B321A32193203
:104BB800183217321632153214321C2ED3D71D5024
:104BC800D8B410D0131E121E111E101E0F1E0E1E5A
:104BD8000D1E0C6C000E0D220E220F221022112227
:104BE800122213220CC00CF00DC00DF00EC00EF0F6
:104BF8000FC00FF010C010F011C011F012C012F069
:104C080013C013F01200000E00016815356E000E77
:104C18006915366E800E6A15376E7F0E6B15386E05
:104C28003550361037103810D8A408D0000E686FE9
:104C3800000E696F000E6A6F000E6B6F000E6C1528
:104C4800356E000E6D15366E800E6E15376E7F0E42
:104C58006F15386E3550361037103810D8A408D074
:104C6800000E6C6F000E6D6F000E6E6F000E6F6F92
:104C78006BAF09D0686D691FD8B0692B6A1FD8B0AF
:104C88006A2B800E6B576FAF09D06C6D6D1FD8B053
:104C98006D2B6E1FD8B06E2B800E6F57000E681BE1
:104CA800000E691B000E6A1B800E6B1B000E6C1B2E
:104CB800000E6D1B000E6E1B800E6F1B6C51685D25
:104CC8006D5169596E516A596F516B59D8B002D0FC
:104CD800D8901200D880120020EE1CF0070EDE6A71
:104CE800E806FDE2145015101610171018101910C8
:104CF8001A101B10D8B446D0010E246E0AD0D890D2
:104D08001436153616361736183619361A361B362F
:104D1800242A1BAEF4D7D8901C361D361E361F36F3
:104D2800203621362236233614500C5C15500D5887
:104D380016500E5817500F5818501058195011582F
:104D48001A5012581B501358D8A011D014500C5E8A
:104D580015500D5A16500E5A17500F5A1850105A0F
:104D68001950115A1A50125A1B50135A1C80D890B5
:104D78001B321A32193218321732163215321432DF
:104D8800242EC9D71CC00CF01DC00DF01EC00EF09B
:104D98001FC00FF020C010F021C011F022C012F087
:104DA80023C013F012000001B435B535BB6FBB51F9
:104DB800D8A409D0000EB26F000EB36F000EB46F06
:104DC800000EB56F1200B2C0B6F0B3C0B7F0B4C0F1
:104DD800B8F0B5C0B9F0200E05D0D890B933B833C3
:104DE800B733B633E82EF9D7B651BA6FB48FFF0E82
:104DF800B217FF0EB317FF0EB417000EB517960EB5
:104E0800BB5FBBAF0DD0BB51800A970FD8A0D2D7DC
:104E1800D890B533B433B333B233BB3FF9D70DD0E1
:104E28001F0EBB6507D0C6D7D890B237B337B43793
:104E3800B537BB07BB51D8A4F7D7BA51D8B408D0F7
:104E4800B51FB41FB31FB26D000EB323B423B5232F
:104E5800B2C0B2F0B3C0B3F0B4C0B4F0B5C0B5F0EE
:104E68001200D4EC2DF0000E046E000E036E2CEC34
:104E78002DF0D50E4424D96EDA6A000EDA22000E1F
:104E8800DF6E9DA415D0D50E4424D96EDA6A000EC3
:104E9800DA220001DF8201D80BD005000101FA6E89
:104EA800FC51FD6EFD51FE6EF850FF6EFA50120077
:104EB8009DA215D0D50E4424D96EDA6A000EDA22E6
:104EC8000001DF8401D80BD005000101FA6EFA5108
:104ED800FD6EFB51FE6EF850FF6EFA501200D50EB3
:104EE8004424D96EDA6A000EDA22DF50D8B40DD025
:104EF80001D8120005000101FA6EF851FD6EF95152
:104F0800FE6EF850FF6EFA50120097EC2BF0D6ECBC
:104F18002DF0120014501510161017101810191033
:104F28001A101B10D8B43CD0010E1C6E0AD0D890B1
:104F38001436153616361736183619361A361B36FD
:104F48001C2A1BAEF4D714500C5C15500D58165083
:104F58000E5817500F5818501058195011581A5009
:104F680012581B501358D8A010D014500C5E15506E
:104F78000D5A16500E5A17500F5A1850105A1950E9
:104F8800115A1A50125A1B50135AD8901B321A32FF
:104F98001932183217321632153214321C2ED3D762
:104FA8000CC00CF00DC00DF00EC00EF00FC00FF0CD
:104FB80010C010F011C011F012C012F013C013F09D
:104FC80012000CC013F00DC014F00EC015F00FC085
:104FD80016F01006D8A0110610280FE11128D8A441
:104FE8000CD0000E0D6E000E0C6E1200134A142A1F
:104FF800154A162A1006D8A0110613C0F6FF14C0C9
:10500800F7FF0800F5500009D8B41DD015C0F6FF09
:1050180016C0F7FF0800F5500009D8B414D0105096
:105028001110D8B410D013C0F6FF14C0F7FF080051
:10503800F5CF12F015C0F6FF16C0F7FF0800F550BF
:105048001218D8B4D3D713C0F6FF14C0F7FF08005E
:10505800F5CF12F015C0F6FF16C0F7FF0800F5509F
:10506800125C0C6E0D6AD8A00D0612000E500F10BF
:10507800D8B404D00E500F10D8A404D00C50DAECD9
:105088002DF0120020EE04F00E50D9260F50DA222F
:10509800DE50DE10D8B416D020EE04F00E50D9261B
:1050A8000F50DA2210EE02F00E50E1260F50E222E5
:1050B800DE50E65CE650800A146EDE50800A145812
:1050C800D8B0120020EE02F00E50D9260F50DA2286
:1050D800DECF10F0DDCF11F00EC0D9FF0FC0DAFF20
:1050E800DECF12F0DDCF13F010501224D96E11501C
:1050F8001320DA6E0CC0DFFF20EE02F00E50D92626
:105108000F50DA22DE2A000EDD2212003EA00AD05D
:105118001EC015F01FC016F01CC017F01DC018F0F7
:1051280047EC2BF021BE05D020C025F021C026F089
:1051380004D0000E266E000E256E000E246E000EA2
:10514800236E0CD0000E0D6E200E0C6E1CC00EF0DF
:105158001DC00FF03AEC28F0234A242A2550235C7E
:105168002450800A226E2650800A2258D8A0EAD7F6
:105178003EB00AD01EC015F01FC016F01CC017F0B4
:105188001DC018F047EC2BF01EC00CF01FC00DF02E
:105198009DEC2CF025500C241C6E26500D201D6E05
:1051A8001200860EF66E5B0EF76E000EF86E00EEBD
:1051B800F6F010EE06F00900F5CFEEFFE550E150ED
:1051C800FAE11A0EF66E5B0EF76E000EF86E00EE40
:1051D80048F010EE0CF00900F5CFEEFFE550E15075
:1051E800FAE102EE00F0320EEE6AE806FDE101EEA9
:1051F800BCF03C0EEE6AE806FDE100EED5F01A0EB2
:10520800EE6AE806FDE100EE3CF00C0EEE6AE806F8
:10521800FDE154905492000EF86E00018CEF29F0D5
:105228000E01C59B6A0E0C6E4E0E0D6E98EC2DF09D
:105238000E01C599DE0E0C6E580E0D6E93EC2DF016
:10524800080E9F6E900E9D6E240E9E6E820E9B6EB3
:10525800060E9C6EB60E0C6E5B0E0D6EA2EC2DF05B
:105268008C0E0C6E5B0E0D6E9DEC2DF0920E0C6E7E
:105278005B0E0D6EA7EC2DF0000E0001EB6F000E1B
:10528800466E000E456E080EF56F000E446E000E59
:10529800ED6F000EEC6F0E01C58B1200000E836ED1
:1052A800000E846E000E856E8868F60E896EF80E04
:1052B8008A6E780E0F01216FF50E196F4F0E116F60
:1052C800000E2D6F000E186F000E106F000E206F6D
:1052D800000E0F6F000E176F000E1F6F0E69166914
:1052E8001E690D6915691D69080E2A6F090E0E01E0
:1052F800B56F110EB76F040EA16F090EEF6F0D0E8B
:10530800F86F0E0EF96F050EA46F170EB86F120026
:10531800C7EC2CF08F80BBEC2DF0090E0001D46F88
:105328001E0ED36FE40EE82EFED7D32FFCD7D42F52
:10533800FAD700F0EFEC2AF08E96F28EF28CF28C0F
:1053480009D04704D8A406D02DEC14F0CCEC2DF0ED
:10535800000E476EFAC0D3F0FBC0D4F00001D45160
:10536800000AD8A4F7D7D351010AD8B4EAD7030A58
:10537800F1D799C039F09AC03AF0000E0001E86FF1
:10538800000EE76F13D097C072F098C073F0390E13
:10539800746F000E756F9BC076F09CC077F0D6ECEA
:1053A80018F000017251E7277351E82339C0F6FF5E
:1053B8003AC0F7FF0800F5500009D8A4E4D7E7C0C1
:1053C80097F0E8C098F01200000E146E000E156EEB
:1053D800000E166E000E176E0CA008D01050142682
:1053E800115015221250162213501722D890103639
:1053F800113612361336D8900F320E320D320C3267
:105408000C500D100E100F10D8A4E6D714C00CF0D5
:1054180015C00DF016C00EF017C00FF01200A10E47
:105428000001A76F000EA86F9DC0A9F09EC0AAF04A
:10543800000EAC6F000EAB6F000EAE6F000EAD6FBE
:10544800A90E976F000E986F9FC099F0A0C09AF0B0
:10545800A70E9B6F000E9C6FBDEC29F00001AB51AD
:105468009D25D96EAC519E21DA6E000EDF6E1200BA
:105478008E96D8EC2DF05206D8A053060E01CA9B82
:1054880086EC2CF052505310D8A40CD00E01C281D7
:10549800C58BC589BFEC2DF0000E0001FB6F010E16
:1054A800FA6F0DD040C042F041C043F04250431063
:1054B800D8B403D070EC2DF002D086EC2DF05492C5
:1054C80011000001E951EA11D8A405D0E9C02AF079
:1054D800EAC02BF006D0FF0EE9252A6EFF0EEA215E
:1054E8002B6E29C0C4F1000E0101C56F27C01CF046
:1054F80028C01DF0C40E1E6E010E1F6E2AC020F0BB
:105508002BC021F08AEC28F01CC027F01DC028F021
:105518001200000E0001641B000E651B000E661BC6
:10552800800E671B60C00CF061C00DF062C00EF009
:1055380063C00FF064C010F065C011F066C012F0CF
:1055480067C013F072EC1CF00CC060F00DC061F085
:105558000EC062F00FC063F01200010E126E200E32
:105568000C180D10D8B414D0F70E0E6EFF0E0F6E77
:105578000CC010F00DC011F00E5010260F50112263
:10558800115004E1050E105CD8A002D0000E126E76
:1055980012C00CF00D6A12000C6E0001F551D8B45F
:1055A800FCD70E01C5B903D00CC09AFF11D0C5991C
:1055B800BC0E4624D96EDA6A010EDA220CC0DFFF6F
:1055C800462A070E466402D0000E466E0001F50713
:1055D8000E01C5891200010E0D6E000E0C6EB2ECA4
:1055E8002CF0050E0001D26F0F0ED16FF10EE82ED0
:1055F800FED7D12FFCD7D22FFAD7C00E0001BC6F2F
:10560800C60EBD6F2D0EBE6F000EBF6F98EC23F057
:105618001200000ECA6E000ECB6E020ECC6E060E85
:10562800C86E000EC76E0E01CE95C750C8CF0CF0DD
:105638000D6A0CC00DF00C6A0C100001EF6F0D50D4
:10564800F06F0E01C685010EC96E1200000ED06EF5
:10565800000ED16E010ED26EC10ECE6E800ECD6ED2
:105668000E01CE91CD50CECF0CF00D6A0CC00DF0CE
:105678000C6A0C100001F16F0D50F26F0E01C6811B
:10568800110ECF6E1200000E1B6E000E1A6E0BD09C
:1056980019C00CF00D6A17C00EF018C00FF03AECE4
:1056A80028F01A4A1B2A1A501524D96E1B501620A6
:1056B800DA6EDF50196E1950D8B41200E9D7000E0F
:1056C8000F6E0AD00F500D24D96E000E0E20DA6E20
:1056D800DF50D0EC2AF00F2A0F500D24D96E000E9F
:1056E8000E20DA6EDF50D8A4EDD70A0ED0EC2AF0DF
:1056F8001200DDC010F0DEC011F0DFC012F0E0C013
:1057080013F00CC010F00DC011F00EC012F00FC055
:1057180013F0139E10C00CF011C00DF012C00EF063
:1057280013C00FF012000D0E9918D8A403D0010E63
:10573800476E1200E40E0001EE25D96EDA6A010EFA
:10574800DA2299CFDFFFEE2BE40EEE25D96EDA6A66
:10575800010EDA22000EDF6E12001FBE05D01F50A8
:1057680010E11E04D8B00DD01EC020F01FC021F0DB
:10577800201E211E204A212A20C01EF021C01FF011
:1057880012001EC01EF01FC01FF012000E01CA91A9
:10579800C291C59BC599D2EC2DF0000E0001FB6F9C
:1057A800020EFA6F50C052F051C053F040C042F0A0
:1057B80041C043F058EC2CF07FEC2DF01200100E95
:1057C800D66EFE0ED46E000ED36ED350D4CF0CF02E
:1057D8000D6A0CC00DF00C6A0C100201326F0D50EE
:1057E800336F0E01CA9BC28B900ED56E1200D00E7D
:1057F8000E6EFF0E0F6E0CC010F00DC011F00E50A3
:1058080010260F501122115006E10A0E105CD8B074
:1058180002D0010E01D0000E0C6E0D6A1200FF0EB0
:1058280048244C6EFF0E49204D6EFF0E4A204E6EE6
:10583800FF0E4B204F6E4C5000080C6E4D50D8A0F8
:10584800E82A00080D6EACEC2DF012000C500D107B
:105858000E100F10D8B408D0000E0C1A000E0D1A36
:10586800000E0E1A800E0F1A0CC00CF00DC00DF0B1
:105878000EC00EF00FC00FF01200D0EC2DF00E018C
:10588800CE95EFC003F0F0C004F01EEC2DF04206F8
:10589800D8A0430642504310D8B403D068EC2DF08A
:1058A80012007FEC2DF01200FF0E48244C6EFF0E04
:1058B80049204D6EFF0E4A204E6EFF0E4B204F6E54
:1058C8004C500008036E4D50D8A0E82A0008046E1A
:1058D800B1EC2DF01200080E0001F56110D0BC0EDD
:1058E8004524D96EDA6A010EDA22DF509A6E452A0B
:1058F800070E456402D0000E456EF52B12000E010E
:10590800C5991200FF0E48244C6EFF0E49204D6EBB
:10591800FF0E4A204E6EFF0E4B204F6E4C50000873
:10592800016E4D50D8A0E82A0008026EB6EC2DF0A2
:1059380012000CC00EF00DC00FF002D00C4A0D2A58
:105948000CC0D9FF0DC0DAFFDF50D8A4F7D70E502E
:105958000C5C0C6E0F500D580D6E12000CC00EF042
:105968000D500F6E8F90350EE82EFED700F00FC049
:1059780092FFB00EE82EFED70EC092FFB00EE82EB2
:10598800FED78F8012005FEC2DF010EC2DF0EDECBF
:105998002CF052EC29F048EC2DF00DEC2BF02AEC11
:1059A8002BF0E3EC2BF014EC29F012000C500E0253
:1059B800F3CF10F0F4CF11F00C500F02F350112672
:1059C8000D500E02F350112610C00CF011C00DF04E
:1059D8001200110E0E01B76F170EB86F0D0EF86F8B
:1059E8000E0EF96F400E956E120E966E010E936EA6
:1059F8008A92969A1200FF0E106EFF0E116EFF0E1D
:105A0800126E7F0E136E10C00CF011C00DF012C094
:105A18000EF013C00FF01200000E0E01E16F000E21
:105A2800E26F000EE36F000EE46F000EE56F000EEC
:105A3800E66F1200C9A407D0C9900450C86E03C00D
:105A4800C7FFC98012000450C86E03C0C7FF120008
:105A5800CFA407D0CF900450CE6E03C0CDFFCF8027
:105A680012000450CE6E03C0CDFF1200C9A407D0A7
:105A7800C9900250C86E01C0C7FFC9801200025009
:105A8800C86E01C0C7FF1200600E0E01D86F000E6D
:105A9800DA6F000EDC6F080EDE6F000EDD6F12008D
:105AA8000E01CE91F1C003F0F2C004F02CEC2DF001
:105AB800010E476E1200F28A0E01BA8BBA91BE919E
:105AC800BD99BD9BBE951200EFC003F0F0C004F075
:105AD8001EEC2DF0C9801200EFC001F0F0C002F0FA
